:100000000C9404010C94480F0C94790F0C94AA0FD3
:100010000C94DB0F0C940C100C943D100C946E108F
:100020000C949F100C9431010C9431010C9431010B
:100030000C9431010C9431010C9431010C94310178
:100040000C9431010C94BE080C9431010C943101D4
:100050000C9431010C9431010C9431010C94281151
:100060000C9431010C94ED080C94350A0C94310178
:100070000C9431010C9431010C9431010C94310138
:100080000C9490080C9431010C9431010C943101C2
:100090000C942D090C94740A0C9431010C943101C8
:1000A0000C9431010C9431010C9462080C943101D0
:1000B0000C9431010C9431010C9431010C943408EE
:1000C0000C9431010C9431010C9431010C946D09A4
:1000D0000C94B30A0C9431010C94AD090C94F20AFF
:1000E0000C94310100002100240027002A002D007B
:1000F0003000330001010000040107010A01000083
:100100002200250028002B002E00310034000201BF
:100110000000050108010B0100002000230026005B
:1001200029002C002F00320000010000030106010D
:10013000090105050505070508080808020202026D
:100140000A0A080804040404010101010101010173
:100150000303030303030303040707070C0C0C0C3E
:100160000C0C0C0C02020202060606060606060627
:100170000B0B0B0B0B0B0B0B0102102020080810B4
:100180002040102040800201020108040201010207
:1001900004081020408080402010080402018004E0
:1001A000020180402010080402010804020101023B
:1001B0000408102040800102040810204080000044
:1001C000090A02080B0C0D070603040100000000D9
:1001D000000000000000000000000000000000001F
:1001E0000000000000000000000011100F000000DF
:1001F00000000000000000000000000000000000FF
:1002000000000000BD01620C11241FBECFEFD1E23F
:10021000DEBFCDBF00E00CBF12E0A0E0B2E0ECEA30
:10022000FAE200E00BBF02C007900D92A239B107BD
:10023000D9F71BBE16E0A2E9B2E001C01D92AC3BAB
:10024000B107E1F712E0C8E0D2E004C02297FE0156
:100250000E945015C430D107C9F70E9419110C949F
:1002600054150C940000A091EF03B091F003ED91B0
:10027000FD918081ED91FD919081ED91FD916C91C9
:1002800063708E2309F064609F2309F06860E3E5E2
:10029000F1E0E60FF11D659565956D936D917D918A
:1002A0008D919D91099423C01AC012C016C010C030
:1002B0001EC009C014C013C006C019C009C00DC0BB
:1002C00007C00DC014C062507040804090400BC009
:1002D000615070408040904006C06E5F01C06F5F0B
:1002E0007F4F8F4F9F4F9E938E937E936E93089573
:1002F000A091F103B091F203ED91FD918081ED9118
:10030000FD919081ED91FD916C9163708E2309F0C8
:1003100064609F2309F06860E8E9F1E0E60FF11DF1
:10032000659565956D936D917D918D919D910994E4
:1003300023C01AC012C016C010C01EC009C014C00D
:1003400013C006C019C009C00DC007C00DC014C03D
:1003500062507040804090400BC0615070408040BF
:10036000904006C06E5F01C06F5F7F4F8F4F9F4F01
:100370009E938E937E936E9308950F931F9381EABD
:1003800092E00E94040682E062E00E94861283E00E
:1003900062E00E94861244E351E0FA018491282F22
:1003A00030E0220F331F285E3E4FF9018591949172
:1003B0009093A5028093A4022AE731E0F901849189
:1003C0008093A8024F5F5F4FFA018491E82FF0E01D
:1003D000EE0FFF1FE85EFE4F859194919093A70268
:1003E0008093A6022F5F3F4FF90184918093A90269
:1003F0001092AB021092AC021092AD021092AE02BB
:1004000080ED97E00E947E11E091A402F091A50298
:10041000208140E030E08091A80290E02823392339
:10042000232B09F041E0E091A602F091A702208180
:1004300030E08091A90290E028233923232B09F092
:1004400042604093AA021092AF0204EA12E01093B5
:10045000F0030093EF0380E063E371E041E050E0DC
:100460000E94CC0E8091AF028F5F8093AF021093F9
:10047000F2030093F10381E068E771E041E050E0AE
:100480000E94CC0E8091AF028F5F8093AF0280EB11
:1004900092E00E94EE051F910F9108958BE196E086
:1004A00060E072E00E94B90E2091920230919302B6
:1004B00040919402509195021216130614061506E7
:1004C0001CF081E08093A0022033310541055105E5
:1004D00014F01092A0028091A002813069F4245F90
:1004E0003F4F4F4F5F4F20939202309393024093C0
:1004F0009402509395020895882361F42C50304063
:1005000040405040209392023093930240939402D3
:100510005093950208958BE196E040E855E260E043
:1005200070E00E94310B8BE196E06FE072E00E9478
:10053000B90E8CE062E00E9486128DE062E00E94BB
:1005400086128CE00E946C13892B29F481E090E0E4
:10055000A0E0B0E004C08CE390E0A0E0B0E08093C5
:100560009C0290939D02A0939E02B0939F0281EA09
:1005700092E069E070E048EE53E020ED37E00E9441
:10058000C20660917D0270917E0280917F029091FF
:10059000800220919C0230919D0240919E025091D8
:1005A0009F020E94BF1460937D0270937E0280932D
:1005B0007F02909380028BE196E069E172E00E94F5
:1005C000B60E40917D0250917E0260917F02709143
:1005D00080028BE196E02AE030E00E94A20E60915A
:1005E0007D0270917E0280917F029091800228EEC0
:1005F00033E040E050E00E94BF14AB01BC0180EB4F
:1006000092E02EE432E00E94E50508958DE00E941C
:100610006C1391C08BE196E064E272E00E94B90E27
:100620008DE00E946C1380E00E94521290939B0216
:1006300080939A0284569040883C910590F481EA18
:1006400092E062E370E00E945A068BE196E065E377
:1006500072E00E94B60E8BE196E063E472E00E94C5
:10066000B90E80919A0290919B028436910590F484
:1006700081EA92E060E070E00E945A068BE196E029
:1006800065E372E00E94B60E8BE196E066E472E0EC
:100690000E94B90E80919A0290919B028D5B9240CC
:1006A000873C910590F481EA92E062E870E00E9454
:1006B0005A068BE196E065E372E00E94B60E8BE18C
:1006C00096E068E472E00E94B90E80919A029091DF
:1006D0009B02845893408D37910590F481EA92E013
:1006E00064EB70E00E945A068BE196E065E372E0ED
:1006F0000E94B60E8BE196E06CE472E00E94B90EA7
:1007000080919A0290919B028C5291408159914024
:1007100090F481EA92E06AE570E00E945A068BE16B
:1007200096E065E372E00E94B60E8BE196E060E52C
:1007300072E00E94B90E8DE00E946C13892B09F4BF
:1007400069CF6DE770E080E090E00E94EA110895C3
:100750006F927F928F929F92AF92BF92CF92DF92D1
:10076000EF92FF920F931F93CF93DF933B014C01C6
:1007700059016A01A61AB70AC80AD90AC4EAD2E01E
:1007800095C08091AF02823008F043C0F894DE013A
:10079000ED91FD918081ED91FD919081ED91FD9123
:1007A0006C9163708E2309F064609F2309F0686088
:1007B000E4EEF3E0E60FF11D659565956D936D919F
:1007C0007D918D919D91099423C01AC012C016C0CD
:1007D00010C01EC009C014C013C006C019C009C093
:1007E0000DC007C00DC014C06250704080409040E2
:1007F0000BC0615070408040904006C06E5F01C0E9
:100800006F5F7F4F8F4F9F4F9E938E937E936E931C
:1008100001C0F89478946091AB027091AC02809121
:10082000AD029091AE020E94D01328E539E344E373
:100830005AE30E945C140E949D1366197709880987
:1008400099092AE530E040E050E00E94BF145B01C6
:100850006C013AE5E32EF12C012D112DE60EF71E69
:10086000081F191FB5EBEB16F1040105110534F053
:1008700024EBE22EF12C012D112D05C017FF03C032
:10088000EE24FF24870181EA92E0B7010E945A0614
:100890008BE196E063E572E00E94B60E8BE196E094
:1008A000B801A7012AE030E00E94A20EA114B10411
:1008B000C104D10409F065CFDF91CF911F910F9151
:1008C000FF90EF90DF90CF90BF90AF909F908F9070
:1008D0007F906F900895EF92FF920F931F938091F6
:1008E000AF02823008F044C0F894A4EAB2E0ED917F
:1008F000FD918081ED91FD919081ED91FD916C9143
:1009000063708E2309F064609F2309F06860E3E957
:10091000F4E0E60FF11D659565956D936D917D9100
:100920008D919D91099423C01AC012C016C010C0A9
:100930001EC009C014C013C006C019C009C00DC034
:1009400007C00DC014C062507040804090400BC082
:10095000615070408040904006C06E5F01C06F5F84
:100960007F4F8F4F9F4F9E938E937E936E9301C0C8
:10097000F89478946091AB027091AC028091AD02D2
:100980009091AE020E94D01328E539E344E35AE384
:100990000E945C140E949D137B018C01609396025F
:1009A000F09297020093980210939902609192023C
:1009B0007091930280919402909195029701A80101
:1009C0000E94A80380EB92E00E949A050E94060311
:1009D0008BE196E06DE572E00E94B60E40919202C6
:1009E0005091930260919402709195028BE196E090
:1009F0002AE030E00E94A20E8BE196E06BE672E006
:100A00000E94B60E40919602509197026091980212
:100A1000709199028BE196E02AE030E00E94A20EEC
:100A200066E970E080E090E00E94EA111F910F916A
:100A3000FF90EF900895FC0110820895EF92FF92CD
:100A40000F931F93CF93DF93EC017A018B018B857A
:100A50009C85AD85BE859A01AB01281B390B4A0BDD
:100A60005B0B89819A81AB81BC81281739074A07C2
:100A70005B07E0F08881813019F0823071F404C0A6
:100A8000E985FA85199509C060E08885882309F40D
:100A900061E068878F810E943913EB86FC860D87A1
:100AA0001E878F8598890196988B8F872D813E812F
:100AB00037FD06C08F859889821793070CF018823E
:100AC000DF91CF911F910F91FF90EF900895AF921A
:100AD000BF92CF92DF92EF92FF920F931F93CF932B
:100AE000DF935C016A017B018C01C0E0D0E0F8017A
:100AF0008081882371F0CE0154E0880F991F5A95A8
:100B0000E1F78C0F9D1F8A0D9B1DB701A6010E9466
:100B10001E0521960F5E1F4FCA30D10541F7DF91A8
:100B2000CF911F910F91FF90EF90DF90CF90BF90EA
:100B3000AF9008950F931F938C010E947011AB0129
:100B4000BC01C8010E9467051F910F910895FF9293
:100B50000F931F93CF93DF93DC01E9019801FC0110
:100B6000FF248081882341F0F39471968AE0F8167F
:100B7000C1F7FF24FA9422C08F2D992787FD909505
:100B80008C01E4E0000F111FEA95E1F7080F191F2F
:100B90000A0F1B1F81E0F801808341835283638326
:100BA000748336832583D287C1870E947011F80130
:100BB0006387748785879687108A17868F2DDF91C4
:100BC000CF911F910F91FF9008950F931F930FEFF7
:100BD0001FEF0E94A7051F910F9108950F931F9378
:100BE000CF93DF93EC0100E010E0CE01800F911F66
:100BF0000E941B050F5E1F4F0A3A1105B1F7DF91E6
:100C0000CF911F910F910895FC0180915A03803379
:100C100090F480838F5F80935A03815090E0FC01B1
:100C2000EE0FFF1FE80FF91FE55AFC4F88EB9BE022
:100C30009283818308958FEF80830895FC01208142
:100C40002033B8F58181992787FD909548E850E0D9
:100C5000481B590B440F551F440F551F6417750748
:100C600084F08281992787FD909548E552E0481BE2
:100C7000590B440F551F440F551F641775070CF48B
:100C8000AB0142505040CA01AA2797FDA095BA2F48
:100C9000880F991FAA1FBB1F4FB7F89430E0F901C6
:100CA000EE0FFF1FE20FF31FE55AFC4F9283818383
:100CB0004FBF0895AF92BF92CF92DF92EF92FF9213
:100CC0000F931F93CF93DF93EC019B0182E060327F
:100CD00078070CF048C077FF03C020E030E005C083
:100CE000653B710514F024EB30E000D00F92B901A0
:100CF000882777FD8095982F2981332727FD309508
:100D0000E8E8AE2EB12CA21AB30AAA0CBB1CAA0C9E
:100D1000BB1CCC24B7FCC094DC2CEA81FF27E7FD88
:100D2000F09528E532E02E1B3F0B220F331F220FD8
:100D3000331F442737FD4095542FEDB7FEB721836D
:100D400032834383548320E030E040E050E004EB02
:100D5000E02EF12C012D112D0E94D0109B010F903F
:100D60000F900F900F90CE01B9010E941E06DF91E7
:100D7000CF911F910F91FF90EF90DF90CF90BF9098
:100D8000AF900895CF92DF92EF92FF921F93CF938F
:100D9000DF93EC01162F7A0169018881803308F016
:100DA00093C0862F61E00E948612888190E0FC014A
:100DB000EE0FFF1FE80FF91FE55AFC4F1F738081EC
:100DC000807C812B808380E292E08E199F0964E011
:100DD00070E00E94EA14698380E699E08C199D090D
:100DE00064E070E00E94EA146A83A8818A2F6CE0B4
:100DF0000E94DE14682F70E0AB01440F551F460FB0
:100E0000571F440F551F440F551F20E030E0C90104
:100E1000840F951FFC01EE0FFF1FE80FF91FE55A25
:100E2000FC4F808186FD44C02F5F3F4F2C30310541
:100E300071F753C01092800082E08093810010927D
:100E4000850010928400B19A80916F008260809337
:100E50006F002EC06230710569F41092900082E03C
:100E600080939100109295001092940088BB80931B
:100E700071001EC06330710569F41092A00082E019
:100E80008093A1001092A5001092A40089BB8093CA
:100E900072000EC0672B61F41092200182E08093F3
:100EA000210110922501109224018ABB80937300C6
:100EB0008A2F90E0FC01EE0FFF1FE80FF91FE55AA3
:100EC000FC4F8081806480838881DF91CF911F9166
:100ED000FF90EF90DF90CF9008956130710509F099
:100EE000B9CFA8CFEF92FF920F931F93CF93DF93C9
:100EF0008B017A01EC01DC01A551BC4F8C9187FF7D
:100F000004C0FB011182108237C0AE01440F551F8F
:100F10004C0F5D1F440F551F440F551F2C91332755
:100F200027FD3095240F351F80915A0390E0281734
:100F3000390714F58C91992787FD9095840F951F9B
:100F4000FC01EE0FFF1FE80FF91FE55AFC4F8081EF
:100F500086FF12C08C91992787FD9095840F951F6D
:100F6000FC01EE0FFF1FE80FF91FE55AFC4F8081CF
:100F70008F7360E00E943913DE01A551BC4F8C9144
:100F80008F5F8C93AE01440F551F4C0F5D1F440FB4
:100F9000551F440F551F2C91332727FD3095240FE3
:100FA000351F80915A0390E0281739070CF04DC087
:100FB0008C918C300CF049C0F801208131818C91EA
:100FC000992787FD9095840F951FFC01EE0FFF1F59
:100FD000E80FF91FE55AFC4F81819281280F391FD4
:100FE000F701318320838C91992787FD9095840F99
:100FF000951FFC01EE0FFF1FE80FF91FE55AFC4F8C
:10100000808186FF2AC08C91992787FD9095840F57
:10101000951FFC01EE0FFF1FE80FF91FE55AFC4F6B
:1010200080818F7361E00E94391317C080E49CE9CE
:1010300004C0F801808191810496F7019183808337
:10104000C551DC4F8FEF888308C0F8018081918102
:10105000049680549C4950F3ECCFDF91CF911F91BF
:101060000F91FF90EF9008951F920F920FB60F927D
:101070000BB60F9211242F933F934F935F936F936F
:101080007F938F939F93AF93BF93EF93FF9380E0F2
:1010900090E064E271E048E251E00E947207FF9143
:1010A000EF91BF91AF919F918F917F916F915F91E0
:1010B0004F913F912F910F900BBE0F900FBE0F904D
:1010C0001F9018951F920F920FB60F920BB60F92AA
:1010D00011242F933F934F935F936F937F938F933D
:1010E0009F93AF93BF93EF93FF9383E090E064EA05
:1010F00070E048EA50E00E947207FF91EF91BF91C3
:10110000AF919F918F917F916F915F914F913F919F
:101110002F910F900BBE0F900FBE0F901F90189540
:101120001F920F920FB60F920BB60F9211242F93AE
:101130003F934F935F936F937F938F939F93AF935F
:10114000BF93EF93FF9382E090E064E970E048E999
:1011500050E00E947207FF91EF91BF91AF919F9174
:101160008F917F916F915F914F913F912F910F9050
:101170000BBE0F900FBE0F901F9018951F920F92ED
:101180000FB60F920BB60F9211242F933F934F93EC
:101190005F936F937F938F939F93AF93BF93EF93DF
:1011A000FF9381E090E064E870E048E850E00E943E
:1011B0007207FF91EF91BF91AF919F918F917F91B6
:1011C0006F915F914F913F912F910F900BBE0F90B8
:1011D0000FBE0F901F90189508951F920F920FB693
:1011E0000F920BB60F9211242F933F934F938F932F
:1011F0009F93EF93FF938091C00082FD1DC04091AB
:10120000C60020913B0430913C042F5F3F4F2F7369
:10121000307080913D0490913E042817390771F099
:10122000E0913B04F0913C04E550FC4F4083309347
:101230003C0420933B0402C08091C600FF91EF91D3
:101240009F918F914F913F912F910F900BBE0F90D7
:101250000FBE0F901F90189508951F920F920FB612
:101260000F920BB60F9211242F933F934F938F93AE
:101270009F93EF93FF938091C80082FD1DC0409122
:10128000CE002091C3043091C4042F5F3F4F2F73D1
:1012900030708091C5049091C6042817390771F009
:1012A000E091C304F091C404ED57FB4F40833093A9
:1012B000C4042093C30402C08091CE00FF91EF913B
:1012C0009F918F914F913F912F910F900BBE0F9057
:1012D0000FBE0F901F90189508951F920F920FB692
:1012E0000F920BB60F9211242F933F934F938F932E
:1012F0009F93EF93FF938091D00082FD1DC040919A
:10130000D60020914B0530914C052F5F3F4F2F7336
:10131000307080914D0590914E052817390771F076
:10132000E0914B05F0914C05E55FFA4F4083309317
:101330004C0520934B0502C08091D600FF91EF91A0
:101340009F918F914F913F912F910F900BBE0F90D6
:101350000FBE0F901F90189508951F920F920FB611
:101360000F920BB60F9211242F933F934F938F93AD
:101370009F93EF93FF938091300182FD1DC04091B8
:1013800036012091D3053091D4052F5F3F4F2F7345
:1013900030708091D5059091D6052817390771F0E6
:1013A000E091D305F091D405ED56FA4F4083309388
:1013B000D4052093D30502C080913601FF91EF91AF
:1013C0009F918F914F913F912F910F900BBE0F9056
:1013D0000FBE0F901F901895E0912706F0912806F8
:1013E000E05CFF4F8191919120813181821B930BB1
:1013F0008F739070892B11F00E94EC08E0914906E0
:10140000F0914A06E05CFF4F8191919120813181FA
:10141000821B930B8F739070892B11F00E942C0903
:10142000E0916B06F0916C06E05CFF4F8191919129
:1014300020813181821B930B8F739070892B11F067
:101440000E946C09E0918D06F0918E06E05CFF4FE2
:101450008191919120813181821B930B8F739070C8
:10146000892B11F00E94AC0908951F920F920FB6BC
:101470000F920BB60F9211242F933F938F939F934C
:10148000EF93FF9320917F04309180048091810439
:10149000909182042817390731F48091C1008F7D23
:1014A0008093C10014C0E0918104F0918204E15C5A
:1014B000FB4F2081809181049091820401968F736B
:1014C000907090938204809381042093C600FF91D2
:1014D000EF919F918F913F912F910F900BBE0F90A5
:1014E0000FBE0F901F9018951F920F920FB60F927C
:1014F0000BB60F9211242F933F938F939F93EF93EB
:10150000FF9320910705309108058091090590917E
:101510000A052817390731F48091C9008F7D80931F
:10152000C90014C0E0910905F0910A05E953FB4F89
:1015300020818091090590910A0501968F73907022
:1015400090930A05809309052093CE00FF91EF91B7
:101550009F918F913F912F910F900BBE0F900FBED7
:101560000F901F9018951F920F920FB60F920BB607
:101570000F9211242F933F938F939F93EF93FF9399
:1015800020918F0530919005809191059091920561
:101590002817390731F48091D1008F7D8093D100D5
:1015A00014C0E0919105F0919205E15BFA4F208122
:1015B000809191059091920501968F739070909310
:1015C0009205809391052093D600FF91EF919F9112
:1015D0008F913F912F910F900BBE0F900FBE0F90E8
:1015E0001F9018951F920F920FB60F920BB60F9285
:1015F00011242F933F938F939F93EF93FF93209109
:101600001706309118068091190690911A0628172E
:10161000390731F4809131018F7D8093310114C0FD
:10162000E0911906F0911A06E952FA4F2081809153
:10163000190690911A0601968F73907090931A066E
:101640008093190620933601FF91EF919F918F911E
:101650003F912F910F900BBE0F900FBE0F901F90D8
:101660001895AF92BF92DF92EF92FF920F931F9364
:10167000CF93DF93EC017A018B01DD24403081EEC2
:10168000580780E0680780E0780711F0DD24D394E4
:1016900091E0A92EB12CEC89FD89DD2069F0C5010E
:1016A00008A002C0880F991F0A94E2F7808360E0C7
:1016B00079E08DE390E005C0108260E874E88EE187
:1016C00090E0A80197010E94FD1421503040404055
:1016D0005040569547953795279580E1203038073B
:1016E00020F0DD2011F0DD24D6CFE889F9893083A0
:1016F000EA89FB89208319A2EE89FF89408121E0D4
:1017000030E0C9010C8C02C0880F991F0A94E2F7DF
:10171000482B4083EE89FF894081C9010D8C02C0AE
:10172000880F991F0A94E2F7482B4083EE89FF89BE
:101730004081C9010E8C02C0880F991F0A94E2F7FC
:10174000482B4083EE89FF8980810F8C02C0220FD5
:10175000331F0A94E2F7209528232083DF91CF914D
:101760001F910F91FF90EF90DF90BF90AF90089581
:10177000DC011C96ED91FC911D97E05CFF4F2191DF
:10178000319180819181281B390B2F733070C901F1
:101790000895DC011C96ED91FC911D97E05CFF4FD4
:1017A00020813181E054F040DF01AE5BBF4F8D916D
:1017B0009C9111972817390719F42FEF3FEF07C0B5
:1017C0008D919C91E80FF91F8081282F30E0C9018D
:1017D0000895DC011C96ED91FC911D97E05CFF4F94
:1017E00020813181E054F040DF01AE5BBF4F8D912D
:1017F0009C9111972817390719F42FEF3FEF10C06C
:101800008D919C911197E80FF91F20818D919C91EA
:10181000119701968F73907011969C938E9330E080
:10182000C9010895DC0191968C919197882339F034
:101830005496ED91FC915597808186FFF9CF919652
:101840001C920895CF93DF93EC01EE85FF85E05C59
:10185000FF4F20813181E054F0402F5F3F4F2F73C5
:101860003070DF01AE5BBF4F8D919C9111972817AF
:101870003907D1F3E05CFF4F80819181E054F04063
:10188000E80FF91F6083EE85FF85E05CFF4F318331
:101890002083EE89FF89208181E090E00F8C02C0D7
:1018A000880F991F0A94E2F7282B208381E089A3EF
:1018B000EC89FD8980818064808381E090E0DF9104
:1018C000CF9108951F9310921E0610921D0628EEC8
:1018D00033E040E050E020931F0630932006409311
:1018E00021065093220666E872E070931C0660930E
:1018F0001B068BEF93E090932806809327068FE3D7
:1019000094E090932A068093290685EC90E09093CA
:101910002C0680932B0684EC90E090932E06809307
:101920002D0680EC90E09093300680932F0681EC9A
:1019300090E0909332068093310682EC90E0909391
:1019400034068093330686EC90E0909336068093BD
:10195000350614E010933706B3E0B0933806A7E0DD
:10196000A0933906F5E0F0933A06E1E0E0933B06F8
:101970001092400610923F06209341063093420693
:10198000409343065093440670933E0660933D0691
:1019900083E894E090934A068093490687EC94E0AC
:1019A00090934C0680934B068DEC90E090934E06FE
:1019B00080934D068CEC90E09093500680934F06F8
:1019C00088EC90E0909352068093510689EC90E069
:1019D00090935406809353068AEC90E090935606B9
:1019E000809355068EEC90E09093580680935706AE
:1019F00010935906B0935A06A0935B06F0935C06C9
:101A0000E0935D06109262061092610620936306D1
:101A100030936406409365065093660670936006A3
:101A200060935F068BE095E090936C0680936B0665
:101A30008FE495E090936E0680936D0685ED90E0BF
:101A40009093700680936F0684ED90E090937206F9
:101A50008093710680ED90E09093740680937306F6
:101A600081ED90E0909376068093750682ED90E08C
:101A7000909378068093770686ED90E090937A06AF
:101A80008093790610937B06B0937C06A0937D0625
:101A9000F0937E06E0937F061092840610928306F0
:101AA00020938506309386064093870650938806D8
:101AB000709382066093810683E995E090938E0689
:101AC00080938D0687ED95E09093900680938F0626
:101AD00085E391E0909392068093910684E391E0F0
:101AE000909394068093930680E391E090939606FA
:101AF0008093950681E391E09093980680939706F2
:101B000082E391E090939A068093990686E391E0B0
:101B100090939C0680939B0610939D06B0939E061F
:101B2000A0939F06F093A006E093A1061F9108954D
:101B3000CF92DF92EF92FF920F931F93CF93DF9399
:101B40007C016B018A01C0E0D0E00FC0D6016D912D
:101B50006D01D701ED91FC910190F081E02DC7015D
:101B60001995C80FD91F015010400115110571F7C3
:101B7000CE01DF91CF911F910F91FF90EF90DF90F9
:101B8000CF900895EF92FF920F931F938C01DC0189
:101B9000ED91FC910190F081E02D6DE019957C01B3
:101BA000D801ED91FC910190F081E02DC8016AE02F
:101BB00019959C012E0D3F1DC9011F910F91FF909A
:101BC000EF900895CF93DF93EC016115710519F43F
:101BD00020E030E00FC0DB010D900020E9F7119705
:101BE000A61BB70BE881F9810280F381E02DAD01DE
:101BF00019959C01C901DF91CF9108954F925F9291
:101C00007F928F929F92AF92BF92CF92DF92EF928C
:101C1000FF920F931F93DF93CF93CDB7DEB7A197BA
:101C20000FB6F894DEBF0FBECDBF2C01742ECB01D2
:101C3000223008F42AE019A231E2C32ED12CCC0EB6
:101C4000DD1E822E9924AA24BB24672D752FA501A1
:101C500094010E94FD1479018A01C801B701A50110
:101C600094010E94BF14472D461B0894C108D10857
:101C70004A3014F4405D01C0495CF6014083E11430
:101C8000F1040105110521F07E2C5F2DC801DDCF87
:101C9000C201B6010E94E20DA1960FB6F894DEBF14
:101CA0000FBECDBFCF91DF911F910F91FF90EF90AD
:101CB000DF90CF90BF90AF909F908F907F905F907C
:101CC0004F900895CF92DF92EF92FF920F931F9360
:101CD000CF93DF93EC016A017B012115310541F4BB
:101CE000E881F9810190F081E02D642F19951FC0E2
:101CF0002A303105D1F477FF17C0E881F9810190CE
:101D0000F081E02D6DE219958C0144275527BA0129
:101D10004C195D096E097F09CE012AE00E94FE0D73
:101D20009801280F391F04C02AE00E94FE0D9C0173
:101D3000C901DF91CF911F910F91FF90EF90DF903C
:101D4000CF900895EF92FF920F931F937C010E9412
:101D5000620E8C01C7010E94C20D9C01200F311F31
:101D6000C9011F910F91FF90EF9008950E94E20D1D
:101D70000895EF92FF920F931F937C010E94E20D52
:101D80008C01C7010E94C20D080F191FC8011F91C5
:101D90000F91FF90EF900895883008F078C0E82FF9
:101DA000F0E0EE0FFF1FED55F94F71836083833034
:101DB000D9F0843030F4813009F444C0823060F4CA
:101DC00039C0853051F18530D8F0863009F446C0ED
:101DD000873009F05CC04FC0809169008C7F842BF4
:101DE00080936900E89A089580916900440F551F17
:101DF000440F551F837F842B80936900E99A0895CF
:101E00008091690074E0440F551F7A95E1F78F7C4B
:101E1000842B80936900EA9A08958091690066E0B6
:101E2000440F551F6A95E1F78F73842B80936900E7
:101E3000EB9A089580916A008C7F842B80936A00CE
:101E4000EC9A089580916A00440F551F440F551F66
:101E5000837F842B80936A00ED9A089580916A00B5
:101E600024E0440F551F2A95E1F78F7C842B809343
:101E70006A00EE9A089580916A0096E0440F551F1B
:101E80009A95E1F78F73842B80936A00EF9A0895F7
:101E90001F920F920FB60F920BB60F9211242F9331
:101EA0003F934F935F936F937F938F939F93AF93E2
:101EB000BF93EF93FF938091A7069091A806892B7B
:101EC00029F0E091A706F091A8061995FF91EF91EE
:101ED000BF91AF919F918F917F916F915F914F9142
:101EE0003F912F910F900BBE0F900FBE0F901F9040
:101EF00018951F920F920FB60F920BB60F921124E6
:101F00002F933F934F935F936F937F938F939F9301
:101F1000AF93BF93EF93FF938091A9069091AA0688
:101F2000892B29F0E091A906F091AA061995FF9155
:101F3000EF91BF91AF919F918F917F916F915F9141
:101F40004F913F912F910F900BBE0F900FBE0F90AE
:101F50001F9018951F920F920FB60F920BB60F920B
:101F600011242F933F934F935F936F937F938F939E
:101F70009F93AF93BF93EF93FF938091AB069091A4
:101F8000AC06892B29F0E091AB06F091AC061995CF
:101F9000FF91EF91BF91AF919F918F917F916F9141
:101FA0005F914F913F912F910F900BBE0F900FBEFD
:101FB0000F901F9018951F920F920FB60F920BB6AD
:101FC0000F9211242F933F934F935F936F937F93BF
:101FD0008F939F93AF93BF93EF93FF938091AD0641
:101FE0009091AE06892B29F0E091AD06F091AE06F6
:101FF0001995FF91EF91BF91AF919F918F917F9133
:102000006F915F914F913F912F910F900BBE0F9069
:102010000FBE0F901F9018951F920F920FB60F9240
:102020000BB60F9211242F933F934F935F936F93AF
:102030007F938F939F93AF93BF93EF93FF93809181
:10204000A3069091A406892B29F0E091A306F091B4
:10205000A4061995FF91EF91BF91AF919F918F9138
:102060007F916F915F914F913F912F910F900BBE98
:102070000F900FBE0F901F9018951F920F920FB6E2
:102080000F920BB60F9211242F933F934F935F93B0
:102090006F937F938F939F93AF93BF93EF93FF9330
:1020A0008091A5069091A606892B29F0E091A506BE
:1020B000F091A6061995FF91EF91BF91AF919F9175
:1020C0008F917F916F915F914F913F912F910F90E1
:1020D0000BBE0F900FBE0F901F9018951F920F927E
:1020E0000FB60F920BB60F9211242F933F934F937D
:1020F0005F936F937F938F939F93AF93BF93EF9370
:10210000FF938091AF069091B006892B29F0E09162
:10211000AF06F091B0061995FF91EF91BF91AF9185
:102120009F918F917F916F915F914F913F912F91EF
:102130000F900BBE0F900FBE0F901F9018951F921F
:102140000F920FB60F920BB60F9211242F933F935D
:102150004F935F936F937F938F939F93AF93BF93AF
:10216000EF93FF938091B1069091B206892B29F0ED
:10217000E091B106F091B2061995FF91EF91BF91F0
:10218000AF919F918F917F916F915F914F913F910F
:102190002F910F900BBE0F900FBE0F901F901895B0
:1021A0002F923F924F925F926F927F928F929F9267
:1021B000AF92BF92CF92DF92EF92FF920F931F9355
:1021C000DF93CF93CDB7DEB73B014C0119012A0154
:1021D0006E897F89888D998D6A197B098C099D0983
:1021E000621A730A840A950AA40193010E94BF141B
:1021F000E218F30804091509A80197010E941F15A8
:102200002A0D3B1D4C1D5D1DB901CA01CF91DF9107
:102210001F910F91FF90EF90DF90CF90BF90AF9004
:102220009F908F907F906F905F904F903F902F90F6
:102230000895CF93DF930E9488110E948B02CCEE09
:10224000D9E00E946B042097E1F30E94EC09F9CFDA
:102250001F920F920FB60F9211242F933F938F93DB
:102260009F93AF93BF938091B7069091B806A091CA
:10227000B906B091BA063091BB060196A11DB11DF9
:10228000232F2D5F2D3720F02D570196A11DB11D55
:102290002093BB068093B7069093B806A093B90627
:1022A000B093BA068091B3069091B406A091B5069A
:1022B000B091B6060196A11DB11D8093B30690930F
:1022C000B406A093B506B093B606BF91AF919F91A7
:1022D0008F913F912F910F900FBE0F901F901895E7
:1022E0008FB7F8942091B7063091B8064091B9069F
:1022F0005091BA068FBFB901CA010895019739F00C
:10230000880F991F880F991F02970197F1F7089579
:10231000789484B5826084BD84B5816084BD85B5C0
:10232000826085BD85B5816085BDEEE6F0E0808187
:1023300081608083E1E8F0E01082808182608083A8
:10234000808181608083E0E8F0E08081816080832B
:10235000E1EBF0E0808184608083E0EBF0E080815D
:1023600081608083E1E9F0E0808182608083808108
:1023700081608083E0E9F0E0808181608083E1EA30
:10238000F0E0808182608083808181608083E0EAE8
:10239000F0E0808181608083E1E2F1E08081826011
:1023A0008083808181608083E0E2F1E080818160D0
:1023B0008083EAE7F0E080818460808380818260AE
:1023C0008083808181608083808180688083109297
:1023D000C1000895EF92FF920F931F93CF93DF9365
:1023E0007B018C013FB7F8948091B3069091B406BD
:1023F000A091B506B091B60626B5A89B05C02F3FA3
:1024000019F00196A11DB11D3FBFBA2FA92F982F1A
:102410008827820F911DA11DB11D52E0880F991FC1
:10242000AA1FBB1F5A95D1F7EC0130C00E949C1324
:102430003FB7F8948091B3069091B406A091B50689
:10244000B091B60626B5A89B05C02F3F19F001969E
:10245000A11DB11D3FBFBA2FA92F982F8827820F2A
:10246000911DA11DB11D32E0880F991FAA1FBB1F2E
:102470003A95D1F78C1B9D0B885E9340B8F2089477
:10248000E108F10801091109C851DC4FE114F10418
:102490000105110559F6DF91CF911F910F91FF9022
:1024A000EF900895382F863308F0365320917B0043
:1024B000832F86958695869590E08170907043E095
:1024C000880F991F4A95E1F7277F282B20937B00DF
:1024D0003770809181028295880F880F807C832BD2
:1024E00080937C0080917A00806480937A00809150
:1024F0007A0086FDFCCF2091780040917900942FDE
:1025000080E030E0282B392BC9010895CF93DF9369
:10251000482F50E0CA0188589E4FFC0134914E5C10
:102520005E4FFA018491882369F190E0880F991F2A
:10253000FC01EC51FF4FA591B491FC01E250FF4F1B
:10254000C591D491662351F42FB7F8948C91932FB1
:10255000909589238C93888189230BC0623061F424
:102560002FB7F8948C91932F909589238C93888121
:10257000832B88832FBF06C09FB7F8948C91832B41
:102580008C939FBFDF91CF910895893009F449C0A2
:102590008A30A0F4843051F1853040F4823079F1F2
:1025A000833000F5813009F063C026C0873079F1AF
:1025B000883098F5863009F05BC025C08D3009F46D
:1025C00042C08E3028F48B30B1F18C30C0F52DC074
:1025D000803109F442C0813109F445C08F3009F0DF
:1025E00047C037C0809180008F7703C08091800002
:1025F0008F7D80938000089584B58F7702C084B565
:102600008F7D84BD08958091B0008F7703C0809145
:10261000B0008F7D8093B0000895809190008F77F7
:1026200007C0809190008F7D03C080919000877FCC
:102630008093900008958091A0008F7707C08091CB
:10264000A0008F7D03C08091A000877F8093A000B1
:102650000895809120018F7703C0809120018F7DA4
:1026600080932001089580912001877F809320012D
:102670000895FF920F931F93F62E482F50E0CA0142
:1026800082549E4FFC012491CA0188589E4FFC0140
:1026900014914E5C5E4FFA0104910023C9F022238D
:1026A00019F0822F0E94C512E02FF0E0EE0FFF1FFD
:1026B000E250FF4FA591B4919FB7F894FF2021F409
:1026C0008C911095812302C08C91812B8C939FBF9C
:1026D0001F910F91FF9008950F931F93482F50E083
:1026E000CA0182549E4FFC012491CA0188589E4F12
:1026F000FC0104914E5C5E4FFA011491112319F410
:1027000020E030E015C0222319F0822F0E94C5126C
:10271000812F90E0880F991F885E9E4FFC01A59144
:10272000B4918C9120E030E0802311F021E030E082
:10273000C9011F910F910895089504D06894B111B3
:10274000B5C0089598D088F09F5790F0B92F992779
:10275000B751A0F0D1F0660F771F881F991F1AF0AC
:10276000BA95C9F712C0B13081F09FD0B1E0089599
:102770009CC0672F782F8827B85F39F0B93FCCF31A
:10278000869577956795B395D9F73EF490958095A2
:10279000709561957F4F8F4F9F4F0895E89409C0C2
:1027A00097FB3EF490958095709561957F4F8F4F84
:1027B0009F4F9923A9F0F92F96E9BB279395F6959A
:1027C000879577956795B795F111F8CFFAF4BB0F18
:1027D00011F460FF1BC06F5F7F4F8F4F9F4F16C07C
:1027E000882311F096E911C0772321F09EE8872F06
:1027F000762F05C0662371F096E8862F70E060E0C2
:102800002AF09A95660F771F881FDAF7880F96953A
:10281000879597F9089597F99F6780E870E060E0E1
:1028200008959FEF80EC089500240A941616170669
:1028300018060906089500240A94121613061406B1
:1028400005060895092E0394000C11F4882352F014
:10285000BB0F40F4BF2B11F460FF04C06F5F7F4FCC
:102860008F4F9F4F089557FD9058440F551F59F0B3
:102870005F3F71F04795880F97FB991F61F09F3F6D
:1028800079F087950895121613061406551FF2CF96
:102890004695F1DF08C0161617061806991FF1CFE6
:1028A00086957105610508940895E894BB2766270D
:1028B0007727CB0197F908950BD0C4CFB5DF28F067
:1028C000BADF18F0952309F0A6CFABCF1124EECFD5
:1028D000CADFA0F3959FD1F3950F50E0551F629F7B
:1028E000F001729FBB27F00DB11D639FAA27F00D69
:1028F000B11DAA1F649F6627B00DA11D661F829F90
:102900002227B00DA11D621F739FB00DA11D621F74
:10291000839FA00D611D221F749F3327A00D611D91
:10292000231F849F600D211D822F762F6A2F112473
:102930009F5750408AF0E1F088234AF0EE0FFF1FC6
:10294000BB1F661F771F881F91505040A9F79E3FFD
:10295000510570F060CFAACF5F3FECF3983EDCF3F7
:10296000869577956795B795F795E7959F5FC1F73A
:10297000FE2B880F911D9695879597F90895629F74
:10298000D001739FF001829FE00DF11D649FE00D67
:10299000F11D929FF00D839FF00D749FF00D659FC8
:1029A000F00D9927729FB00DE11DF91F639FB00DC7
:1029B000E11DF91FBD01CF0111240895991B79E094
:1029C00004C0991F961708F0961B881F7A95C9F7BF
:1029D0008095089597FB092E07260AD077FD04D02D
:1029E00049D006D000201AF4709561957F4F089564
:1029F000F6F7909581959F4F0895A1E21A2EAA1B94
:102A0000BB1BFD010DC0AA1FBB1FEE1FFF1FA2179E
:102A1000B307E407F50720F0A21BB30BE40BF50B9B
:102A2000661F771F881F991F1A9469F76095709524
:102A3000809590959B01AC01BD01CF01089597FB56
:102A4000092E05260ED057FD04D0D7DF0AD0001C72
:102A500038F450954095309521953F4F4F4F5F4F3B
:102A60000895F6F790958095709561957F4F8F4FFB
:102A70009F4F0895AA1BBB1B51E107C0AA1FBB1F94
:102A8000A617B70710F0A61BB70B881F991F5A95FA
:102A9000A9F780959095BC01CD010895EE0FFF1F19
:0C2AA0000590F491E02D1994F894FFCFFC
:102AAC0054696D657220747269676765726400534E
:102ABC0074617274696E673A007761697454696DF8
:102ACC00653A20004D616E75616C20436F6E7472B7
:102ADC006F6C3A20006D6F746F722056616C756567
:102AEC003A200035300030003133300031383000BE
:102AFC003930006D6F746F7256616C3A0073657487
:102B0C00506F736974696F6E3A20006375727265E9
:102B1C006E74506F736974696F6E3A20003C0000DC
:102B2C00000100000000220C980DB80BE90BC90B3A
:022B3C00120C79
:00000001FF
